:020000040800F2
:101000000050002085490008814900087F490008F8
:101010007F4900087F4900087F4900080000000060
:1010200000000000000000000000000081490008EE
:10103000814900080000000081490008814900083A
:101040007F4900087F4900087F4900087F49000860
:101050007F4900087F4900087F4900087F49000850
:101060007F4900087F4900087F4900087F49000840
:101070007F4900087F4900087F4900087F49000830
:101080007F4900087F4900087F490008293100088E
:1010900009310008193100087F4900087F4900081C
:1010A0007F4900087F4900087F4900087F49000800
:1010B000291400087F4900087F4900087F4900087B
:1010C0007F4900087F4900087F4900087F490008E0
:1010D0007F4900087F4900087F4900087F490008D0
:1010E0007F4900087F4900087F4900087F490008C0
:1010F0007F4900087F4900087F4900087F490008B0
:101100007F4900087F4900087F4900087F4900089F
:101110007F4900087F4900087F4900087F4900088F
:101120007F4900087F4900087F4900087F4900087F
:101130007F4900087F4900087F49000855310008B1
:1011400035310008453100087F4900087F49000813
:101150000346B3F5A56F084628D8B3F5A46F07D8A2
:10116000B3F5847F0ED040F2091293420CD0704741
:10117000A3F22253062B09D8DFE803F00A0C0E1065
:101180001214160002F0DABA02F0DEBA02F0AABBBC
:1011900002F0B0BB02F0B6BB02F0BCBB02F0C2BBB7
:1011A00002F0D2BB02F0D8BB02F0DEBB70478188F0
:1011B00008B5006802F0DEFF003818BF012008BD46
:1011C00010B503F0BDF901F047FA1A48FFF7EFFF39
:1011D00010B1012001F046FA4FF47A74164B0C203E
:1011E0001968490191FBF4F100F0CCFB134B10207E
:1011F0001968490191FBF4F100F0C4FB104B112078
:101200001968490191FBF4F100F0BCFB0D4B122071
:101210001968490191FBF4F100F0B4FBBDE81040FE
:101220004FF46161084B13201B685B0193FBF1F1E4
:1012300000F0A8BB08030020800300207C030020EE
:10124000740300207803002070030020644B70B505
:101250009988186802F091FF02F098FF614B624D87
:10126000186800F04FFB0A21400190FBF1F10F20BC
:1012700000F088FB2B7863B903F062F9642808D981
:101280005A48FFF794FF20B101210320297000F094
:1012900071FB032000F066FB012804460BD103F02C
:1012A0004FF9C82807D9204602F062FA504B9988B6
:1012B000186802F05DFF4F4C4F4E23684BB93378EE
:1012C0005B0706D503F03CF902212060032000F003
:1012D00051FB032000F046FB022816D103F030F941
:1012E0002368C01AB0F57A7F0FD94448FFF75FFF33
:1012F00058B103210022424B08461A7000F03AFB15
:10130000404B9988186802F033FF032000F02AFB55
:10131000032815D1092000F025FB0446002000F029
:1013200021FBA042A8BF2046FF28A8BFFF20C0B2D3
:1013300002F030FA0C2000F015FB80B202F042FA05
:10134000032000F00FFB042802D1002002F022FA53
:10135000022000F007FB2C4B1880062000F0FCFA5E
:101360002A4B001118702A4B0820197800F002FB54
:101370002B78CBB1072000F0F5FA044600B300202B
:1013800002F0F6F90421032000F0F4FA214B0B20BF
:10139000198800F0EFFA204B0A20197800F0EAFAD9
:1013A0001E4B186802F034FA3178042000F0E2FA9B
:1013B000BDE870401A4B0E20B3F9001000F0DABA05
:1013C000062000F0C9FA0546012000F0C5FA854262
:1013D000D5DA204600F0C6FA0028D0D0D6E700BF04
:1013E00000030020B8020020B0020020D802002034
:1013F000F0020020BC02002061030020E002002077
:1014000062030020E80200206A0300206C03002031
:101410005C0300206803002066030020B402002063
:101420006E03002070470000014B186800F03ABAC4
:10143000B8020020052500B5ADF2AC7D00F0DCF867
:1014400000F05AF901225949594801F069F802237C
:1014500020225849584800F007FE022340225549EF
:10146000564800F001FE022380225249544800F001
:10147000FBFD022308224F49524800F0F5FD0423EA
:101480004FF480424B49504800F0EEFD04234FF4E6
:10149000005248494D4800F0E7FD04234FF48052C4
:1014A00044494B4800F0E0FD04234FF400523F490B
:1014B000484800F0D9FD00F0ADFF00F0D9F84FF436
:1014C00080414FF0007002F049FE00F021F900F079
:1014D00009F901F095F84FF08041684695AC00F0AD
:1014E00087F93D4B01223D492046C3F800D001F069
:1014F00075FD3B4B20463B491C6084F8505501F07C
:1015000002F94FF48471204601F090FA40F209117B
:10151000204601F08BFA40F21151204601F086FA84
:1015200040F22151204601F081FA40F2225120463A
:1015300001F07CFA40F22351204601F077FA40F2A4
:101540002451204601F072FA40F22551204601F064
:101550006DFA40F22651204601F068FA40F2265119
:10156000204601F063FA40F22751204601F05EFA6E
:101570004FF4A561204601F059FA00231A4A1B498D
:101580000AA800F0EFFA0A226846194900F054F957
:1015900068461849642200F04FF90421284600F0FB
:1015A000E9F90AA800F0F0FBFBE700BF00100140DA
:1015B0001C030020000C014008030020D80200207A
:1015C000E0020020F802002010030020F0020020BA
:1015D000E802002000030020B80200200064004060
:1015E000B402002051110008F04C000800480040EF
:1015F000C11100084D12000808B502F0DFFE1A4BB9
:101600001A4A40F202301A6002F01EFF40F2033024
:1016100002F01AFF4FF4417002F016FF40F205305D
:1016200002F012FF40F2923002F00EFF4FF46070B1
:1016300002F00AFF40F2823002F006FF4FF4207001
:1016400002F002FF40F2093002F0FEFE40F2862076
:1016500002F0FAFE4FF4407002F0F6FEBDE80840DA
:1016600040F2993002F0F0BE0CED00E00003FA0504
:1016700070B596B001A81422002100F0EEFC134AC8
:10168000134B1449CDE90123134B144CCDE903133B
:1016900002F0E2FB142101A802F0ECFB1590236D8F
:1016A000834210D002F004FD204602F0BDFC0C4E37
:1016B00001AD204655F8041B043402F013FDB4427A
:1016C000F7D102F001FD16B070BD00BF001001405F
:1016D00000200101000C01400600010000F4010897
:1016E00054F4010808B51C2003F09CF9BDE808403B
:1016F000E0211C2003F0A4B908B503204FF41C71AD
:1017000002F050FFBDE80840002002F023BF0000B7
:1017100010B5344C204602F085FF0021204602F02F
:101720006DFF204602F065FF20460622002102F0F0
:1017300082FF20460622022102F07DFF204606227B
:10174000042102F078FF06222046114602F073FFC2
:101750002046002103F035F82046022103F031F83D
:101760002046042103F02DF82046062103F029F835
:101770002046002103F03FF82046022103F03BF809
:101780002046042103F037F82046062103F033F801
:101790002046002103F054F82046022103F050F8BF
:1017A0002046042103F04CF82046062103F048F8B7
:1017B0002046012103F079F82046002102F037FF8E
:1017C0004FF48051204602F034FF204602F025FFFE
:1017D000BDE810404FF4607302220321024802F07A
:1017E0008DBC00BF00080040000C014070470000A5
:1017F00038B50D4604460162084602F0FAFE284656
:1018000002F006FF284640F2CF2102F010FF2846E2
:101810004FF6FF7102F00DFF064B2046C4E900337E
:10182000C4E902334FF0FF33C4E904330023636299
:1018300038BD00BFED170008F8B5436A0446032B16
:101840000E4615462ADC006A02F0ECFE144F636A6D
:101850000122F95C206A02F0EEFE636A0022F95C64
:10186000206A03F012F80221636A05EB850505EB97
:10187000850503F10802AD0044F82360994024F87F
:101880001250206A02F0A8FE0021206A03F013F82B
:10189000206A02F0C2FE636A01336362F8BD00BFD2
:1018A0007C4A00082DE9F04704460025022600F195
:1018B000100700F1180806FA05FA5146206A02F0EE
:1018C0008FFED0B1206A02F0F4FF51468146206AB3
:1018D00002F08CFE236A37F81520343353F82510B4
:1018E0000A4443F8252054F825309847206A02F02E
:1018F000E0FFA0EB090028F815000135042DDAD12E
:10190000BDE8F08730B500F1100100F118030A2599
:1019100000200C46228924886A43B2FBF4F202318B
:101920008B421044F5D130BD1C2210B5084C02FB8F
:101930000042D4688C4209DC12698A4206DB054AFF
:1019400042F82010FFF76EFD002010BDFF20FCE7DD
:101950005000002000000020014B53F82000704789
:1019600000000020024B53F820004011704700BFD8
:1019700000000020024B490143F82010704700BFCF
:1019800000000020014B43F82010704700000020A9
:1019900070B506460024074D3146686800F0BCFA71
:1019A00008B9E0B270BD0134142C05F11C05F3D167
:1019B0001520F7E7500000200023064A9169814274
:1019C00001D1D8B270470133142B02F11C02F5D1BA
:1019D00015207047500000201C22024B02FB0030F3
:1019E000704700BF500000201C22044B02FB003354
:1019F000D3E90303C01A18BF01207047500000202C
:101A00000023064A0649906910B1506941F8230045
:101A10000133142B02F11C02F5D170475000002055
:101A200000000020014B1954704700BFC002002085
:101A3000024B1A5C11431954704700BFC0020020CA
:101A4000024A135C23EA010313547047C0020020CA
:101A5000014B185C704700BFC0020020024B1A689F
:101A6000024BC3F874217047A002002050000020F0
:101A700038B5837D044623B9BDE83840806802F05C
:101A800057BF90F82030426ADB01034413440A290F
:101A900083F8A91001D07F2A39D11E4D6368022234
:101AA0002846197902F00BFA18B994F82830002B5F
:101AB000F4D063681748197902F04DFA626A6368D6
:101AC00001321979134892B202F067FA94F8202093
:101AD000636804EBC21219790E48A93202F04DFA7C
:101AE0006368022219790B4802F0E3F96368094838
:101AF000197902F027FA94F82030B3FA83F35B09DE
:101B000084F82030002384F82830636238BD013225
:101B10004262FBE7000002402021806802F029BFFA
:101B2000806802F01EBF000038B504460C4D4368C3
:101B30002846597902F00FFA63682846597904F16A
:101B4000290202F01AFA636828465979802202F0C5
:101B500024FA636828465979BDE8384002F0F2B9A2
:101B60000000024070B5026140F201120D464A4980
:101B70008282016001210022817580F828100446CC
:101B80000321C0E9062280F820204262434A856092
:101B90000373426062681068A84206D1404A14602C
:101BA00062683BB99068938906E018320139626037
:101BB000F0D1F3E71069938A0222032102F09EFA22
:101BC00028464FF4E13102F079FE2846082102F060
:101BD00089FE28464FF4005102F08DFE28460C2164
:101BE00002F095FE2846002102F08BFE00212846D7
:101BF00002F093FE284602F0A6FE284602F0A8FE58
:101C000063682848197902F043F96368254819790F
:101C100002F08FF963682E1D32461979214802F0CF
:101C2000A3F96368002219791E4802F05FF963681E
:101C3000002219791B4802F04CF963681948197998
:101C400002F061F963681748597902F021F9636875
:101C500032465979134802F087F9636800225979AE
:101C6000104802F043F96368002259790D4802F0E8
:101C700030F963680B48597902F045F963680948FF
:101C8000597902F05FF92046FFF74EFF284602F02F
:101C90004AFE204670BD00BF904C0008404C000832
:101CA000D40200200000024038B5437D0D4604698F
:101CB0004BB1216839B1284600F02EF908B108343B
:101CC000F7E7236803B90024204638BD38B5054638
:101CD0004C1E14F8011F19B1A86802F029FEF8E79C
:101CE00038BD000010B50446084600F081F900F048
:101CF00066F9237D227B8342636811D101216175DE
:101D00005AB118699B8A0321022202F0F7F9204692
:101D1000BDE810400949FFF7D9BF98689B89F2E7F1
:101D2000002161753AB118699B8A0122BDE8104013
:101D3000002102F0E3B998689B89F6E7D74E0008C6
:101D400038B50446084600F053F90378302B637D1C
:101D50000CBF4FF4E1354FF461253BB120460849F3
:101D6000FFF7B4FF20460749FFF7B0FF2946A068F8
:101D700002F0A4FDA0680021BDE8384002F0BBBD20
:101D8000D74E0008F74B00082DE9F04143680446A0
:101D90005979464802F0FAF80546C0F1800710B9B3
:101DA0002046FFF7C1FEE369BB4208DA5A1CE26134
:101DB000234493F82910A06802F0BAFDF3E7002F3E
:101DC00072DD651B95F8A8300A2B01D00D2B5FD171
:101DD0000022E31904F1290683F829202021304646
:101DE000E26100F0B7F890F800800546B8F1000F06
:101DF0002BD10A21304600F0ADF8054684F8A981C0
:101E00002B7823B90D21304600F0A4F805460023B5
:101E100030462B702649A36100F07EF80546D0B904
:101E2000204604F2A911FFF75DFF2046FFF77CFE74
:101E3000A3691BB3A06802F098FDA369204604F2D1
:101E4000A9115B68BDE8F0411847411C04F2A910D4
:101E500000F070F8D4E73046164900F05DF805460A
:101E600028B9204604F2A911FFF76AFFDDE73146E1
:101E70002046FFF719FF3D46A061D6E7012D13DD8F
:101E8000637D8BB12046BDE8F0410B49FFF71EBFD3
:101E900094F82930212B07D1A3692BB12046FFF7F5
:101EA00043FE0023E361C8E7BDE8F0810000024083
:101EB0000E4C0008194C0008224C0008034BC1B21C
:101EC0001B681A6818461268104700BFD402002029
:101ED000704700F0FFBB000007B5064B06491A68C3
:101EE000043B1B6809680091044900F085FA03B0BF
:101EF0005DF804FBF0F7FF1FE8F7FF1F944C0008A4
:101F000010B50446FFF77CFD2046BDE810400149AE
:101F100000F072BA9D4C0008431E013913F8010FFE
:101F200011F8012F10B10AB19042F7D0801A18BFF2
:101F300001207047013911F8013F0BB90370704758
:101F400000F8013BF7E7034600201A5C02B970472E
:101F50000130FAE70346184613F8012B0AB18A420A
:101F6000F9D1704700290346F0B520DA2D2003F897
:101F7000010B012049421D46C71A91FBF2FC02FBEE
:101F80001C11303129702C46BCF1000105F101050E
:101F90001E4605EB0700F0DC00232B70B4420BD982
:101FA0003378227806F8012B04F80139F6E704D1DA
:101FB0003022417002700120F0BD0020DBE730B517
:101FC00003782D2B11D14FF0FF34013000210A2569
:101FD000431E01E005FB012113F8012F303AD0B276
:101FE0000928F7D904FB01F030BD0124EEE7000019
:101FF00010B5134C02780146A2F10A03DBB2162B8E
:1020000000F1010017D9A2B10846FFF79CFF0C4C64
:10201000013808448142024609D2137801380A3B4C
:10202000DBB2162B03D824FA03F3DB07F2D4002328
:102030005370084610BD24FA03F3DA07DAD4E3E755
:1020400009004000002310B5934200D110BD51F8A3
:10205000234040F823400133F6E7013A00D27047AD
:1020600040F8041BF9E70000013BDBB2032B70B51D
:102070000C4615460160828011D80B4A0B48D15C92
:102080000B4AC65CD25C2B46204602F037F8012E84
:1020900009D129462046BDE8704002F069B8002603
:1020A00002223146EFE770BD604D0008684D000820
:1020B000644D00084FF40042014B1A80704700BF86
:1020C000180300200029B4BF4FF0FF32012270B581
:1020D000642401FB02F3591103F01F03634301322F
:1020E0004FEA6314054604BF2D2305F8013B06465D
:1020F0000A222846FFF736FF2E23092C2B54D8BF7F
:10210000302305EB0002CEBF501C5370901C2146BB
:102110000A22FFF727FF304670BDF0B503782D2B5C
:1021200017D14FF0FF36013000244FF00A0C02E0C7
:1021300018460CFB0454034613F8012BA2F130059A
:10214000EFB2092FF4D9AAB98C40224406FB02F061
:10215000F0BD0126E8E78B4003EB650393FBF5F345
:102160000CFB05F51A4410F8013F303BDFB2092F94
:10217000F1D9E9E70A250022AC46F4E72DE9F84356
:10218000141E06460D4624DD0022A95C09B1013269
:10219000FBE7A242ACBF0C46A41A13F0020F0CBF1F
:1021A00020273027DB071ED4A0465FFA87F9B8F155
:1021B000000F10DC24EAE473E41AA3EB050808EB33
:1021C000050915F8011B81B1336830461B68984733
:1021D000F5E72027E6E73368494630461B6898470D
:1021E00008F1FF38E3E70023E7E72546FFB2002DBB
:1021F00006DD3368394630461B689847013DF6E7EF
:10220000002CACBF09EB040009F10000BDE8F88325
:102210002DE9FF470746DDE90C8A15461C4651B9F2
:1022200030234246ADF8043001A95346FFF7A6FF1C
:1022300004B0BDE8F08723B10A2A2DD100292BDA9A
:10224000494200238DF80F300E9B0DF10F023A3BEF
:10225000B1FBF5F005FB1016092E88BFF6183036D5
:102260008D4202F1FF3902F8016C17D964B1B8F15F
:10227000000F16D01AF0020F13D03B682D213846FC
:102280001B68984708F1FF3853464246494638468E
:10229000FFF774FF2044CBE70024D2E701464A460B
:1022A000D6E72D23002409F8013CA2F10209EBE74F
:1022B0000846FFF703BE00002DE9F04307460E462F
:1022C000144600254FF00A08DFF804918BB03378EC
:1022D000002B78D0252B6FD17378002B73D0252B52
:1022E00006F1010267D02D2B0ABF01230023B21C87
:1022F000164612F8011B302902D143F00203F7E71A
:102300000022304610F8011BA1F1300C5FFA8CFE60
:10231000BEF1090F03D8064608FB02C2F1E7732994
:1023200008D121680434002908BF49463846FFF720
:1023300025FF0DE064290ED161202146CDE9013051
:10234000012300920A22384609680434FFF760FF2F
:1023500005440136BBE7782907D121466120CDE944
:102360000130009200231022EDE7582902D12146C6
:102370004120F4E7752906D161202146CDE90130DD
:1023800000920023DEE766290AD1216807A8CDE97B
:1023900004230434FFF796FEDDE9042307A9C5E70B
:1023A0006329D6D1216804348DF8181000218DF8E6
:1023B000191006A9BAE716463B6838461B683178FB
:1023C00098470135C5E728460BB0BDE8F08300BF4C
:1023D0006C4D00080FB407B504AA52F8041B054B56
:1023E0006846CDE90032FFF767FF03B05DF804EB04
:1023F00004B070477C4D00080EB403B503AA52F830
:10240000041B0192FFF758FF02B05DF804EB03B024
:102410007047000007B52D4801F0F0FA2B4801F095
:10242000F2FA2A4801F0F9FA284801F0F1FA0121FC
:10243000264801F0CEFA254801F09EFA0023244AEE
:102440000193019B934203DC019B01330193F8E765
:102450001E4801F0A1FA1D4801F0B1FA01211D4A00
:102460001A4801F0DFFA194801F01FFB01211A4A4E
:102470001A4801F079FD0121194A184801F07DFD43
:102480004FF480720121154801F030FD4FF4806255
:102490000121124801F01DFD0C2201210F4801F01D
:1024A0007CFD01210D4801F02EFD01210B4801F0BA
:1024B00033FD0121094801F045FD044801F0EBFA24
:1024C000024803B05DF804EB01F05EBA002401405D
:1024D0007F3801001A0300204C2401400000024014
:1024E000200300200D4B98420BD003F580639842E7
:1024F0000DD0A3F5006398420ED107290CDCC8B2B9
:102500007047012908DC01F10800C0B270470529B5
:1025100002DC01F10A00F8E710207047000C0140CE
:10252000012370B593400C4615460022064611461D
:102530009BB2204601F0E2FD29462046FFF7D2FF7C
:102540003368034A9B1A034AC3F34F03D05470BD48
:10255000200300201A030020014B024A1A60704732
:102560001C030020200300202DE9F041ADF5806D13
:1025700001F072FC4FF480724FF0FF316846FFF7B4
:102580006CFDE8466C460025EEB23046FFF72CFAAB
:10259000B0B17F2D04F1080412D03046FFF71CFAC9
:1025A00007463046FFF754FA04F8050CBB6930467D
:1025B00024F8083CFFF7D0F9013544F8040CE3E7B0
:1025C000FE21684601F056FCFE9001F071FD0A48BC
:1025D00001F02AFD084C094D204658F8041B04342C
:1025E00001F080FDAC42F7D101F06EFDFE980DF5D3
:1025F000806DBDE8F08100BF00FC0008000001080C
:1026000070B5144C01F028FCFE21204601F032FC8C
:10261000D4F8F833834219D10025EC0004F10064AA
:1026200004F57C442088FFF7C7F91528064608D032
:10263000238833B16168FFF7A5F93046E178FFF7E9
:10264000F1F901357F2DE8D1002070BD4FF0FF304A
:10265000FBE700BF00FC0008014B1860704700BF9B
:102660004003002030B50B4C235C93B90A4B1D6826
:102670007DB10A4B0A490B4A18700B6802F8330007
:1026800002EBC30255600122134403F003032254FA
:102690000B6030BD3C0300204003002044030020B9
:1026A0003803002080020020074B10B403EBC10266
:1026B0001479064A53F8313052F82420014610BCF0
:1026C0000348FFF787BE00BFCC4D0008DC4D000873
:1026D000804D000838B5094C636823B9BDE838401F
:1026E0000748FFF777BE0025606830B114F8081B73
:1026F0000135FFF7D9FF042DF6D138BD8002002047
:10270000904D00087047C0F8301570472DE9F04F24
:1027100000240B9E074634704FF0010904464FF623
:10272000FF7AE51BB5F5E17F29DCB4F800E0D6457A
:1027300025D004F1020C654695F90580B8F1000F2B
:102740001BDDB5F800B08B4511D10120C2F800E0C7
:102750002A791A60099BB5F90220C3F800800A9B08
:102760001A60BDE8F08F00F5FA742746D9E7063500
:10277000A5EB0C08B8F12A0FDEDD3234D1E734784E
:1027800086F80090002CEED00020EAE70C2200230F
:10279000514330B50B4C8BB0621895685268CDE947
:1027A000073305926258CDE90133CDE9033206952E
:1027B000009301221946D0F84C0501F087F90BB0BF
:1027C00030BD00BFE84D0008F7B504460F46D0F80D
:1027D0004C05012115461E4601F06AFA00233946D0
:1027E0001A46CDE90065D4F84C0501F066FA0028D8
:1027F00012DAD4F82C0513280EDC04EB0013C3F80E
:10280000F06329680130C3F8F4136A68A3F8EC7325
:10281000C3F8F823C4F82C05D4F82C35002B07DDB9
:102820000121D4F84C0503B0BDE8F04001F03CBAFA
:1028300003B0F0BD2DE9F04F0446814600274FF666
:10284000FF7A85B0CDE90201A4EB0903B3F5E17F7E
:1028500022DC238853451FD004F1020B04F1080544
:1028600015F9013CA846002B11DD15F8022C15F8CE
:10287000060C019735F9041C039E00912188A8EBF2
:102880000B08B047B8F12A0F05F10605E8DD323430
:10289000DAE7A1460127D7E7029B03F5FA74002F78
:1028A000F7D005B0BDE8F08F0128DABF024B53F82E
:1028B00020000020704700BF4803002013B50446E5
:1028C000D4F82C35002B1ADD5A1E04EB031304EB4D
:1028D000021203F57973B2F8EC13019392F8F03316
:1028E000D4F84C05009300231A4601F0E6F90028BD
:1028F00005DBD4F82C35013BC4F82C35E0E7D4F8DF
:102900002C353BB90121D4F84C0502B0BDE810408C
:1029100001F0CEB902B010BDF0B51C4626880F46B6
:102920007601B1B20126106885B09B8802960640F8
:102930000196E688154662887601B6B25B015201BF
:102940009BB292B2009601F09FF900233B602A6887
:1029500001322A60E380A3806380238005B0F0BD4C
:102960002DE9FF410122002304460025D0F84C1533
:1029700000922C4ACDE90233914218BF2A4B00F253
:1029800034561CBF1B68C3F30523019390F85035E0
:1029900003F5C063ADF80830D4F84825009BAA427F
:1029A00012DD04AA02EB430236F8021B0133042BAA
:1029B00022F8081C009305D16946204602AB01AA03
:1029C000FFF7AAFF0135E7E74FF6FF7804F5FA773E
:1029D00004F2262535F8322C2E464245009B0BD1B9
:1029E000009B002B05DD6946204602AB01AAFFF7DC
:1029F00093FF04B0BDE8F08104A901EB430101336A
:102A0000042B21F8082C009305D16946204602AB1F
:102A100001AAFFF781FFF61BB6F5E17F05F132054C
:102A2000D8DDDDE700640040006A0040D0F84825AA
:102A300010B5092A0ADC00EB42040132A4F834156F
:102A4000C0F84825FFF78CFF012010BD0020FCE7EF
:102A50004FF6FF70002301F5FA720880CB714B73BB
:102A6000CB744B76CB7781F8253081F82B3081F809
:102A7000313032318A42F0D1704710B504460146F8
:102A8000FFF7E6FF204604F5FA71FFF7E1FF204665
:102A9000BDE81040FFF764BF002310B5CC5AC8183A
:102AA000944204D03233B3F5FA7FF7D1002010BD41
:102AB0002DE9F843B3F5006F8146DDE908760C4651
:102AC0001546984632DA3F2F33DC202E34DC1A4686
:102AD000FFF7E2FF38B94FF6FF724846FFF7DCFF19
:102AE00068B3A0F80080023090F90530002B01DDBA
:102AF0000630F9E7013325D0BDF928300580438041
:102B0000077146714FF6FF71002004F1320333F86C
:102B1000325C1A468D4207D0121BB2F5E17F00F1FC
:102B2000010003F13203F2DDBDE8F8834FF0FF301E
:102B3000FAE76FF00100F7E76FF00200F4E76FF0DB
:102B40000300F1E76FF00400EEE71FB5BDF91C408C
:102B50000294069CCDE9003413460A460146FFF76D
:102B6000A7FF04B010BD30B585B0BDF924500446B0
:102B70000295089DCDE9003513460A4600F5FA7125
:102B8000FFF796FF05462046FFF7EAFE284605B008
:102B900030BDF7B5B1F801700646A7F50053012B1B
:102BA0000C4624D8C878132849D842F201039F4222
:102BB00001D1FEF701FF2378402B11D16168FEF7A8
:102BC000B3FE70BB2323237008232246304696F8B9
:102BD000501501F5B06103B0BDE8F040FFF7F4BD5A
:102BE000222BF1D1FEF7B8FE43236060EBE7A7F597
:102BF0004053B3F5C05F22D2C97813291FD8237878
:102C0000402BE1D16568C7F30A02C5F3072CEBB28C
:102C10002D14CDE900C57D040ED5FFF7A4FF0028D3
:102C2000D0DA8023237030232371002363710923BA
:102C3000A3710623E371C7E7FFF787FFEFE7802360
:102C400023700023237163710223F1E72DE9F0471C
:102C500005460E464FF001088AB0002305930DF19A
:102C60001A0303930DF11B0302930DF1190308AC32
:102C7000019306AB00930122D5F84C05049407ABF1
:102C8000F1B201F091F8002856D095F85035079A26
:102C900003F5C063934208D19DF81A30082B04D184
:102CA00021462846FFF775FFD7E7284605F5FA7154
:102CB000FFF7F2FE002839D000F1020900F1080AFE
:102CC0001AF9011C5746002904DC01F039FCC5F84B
:102CD000E803C2E71AF8024C08FA01F11F2C93BF6F
:102CE000089B099A203C23FA04F401F1FF3188BFC4
:102CF00022FA04F40C403AF9041C1AF8060C640198
:102D00004C43FEF771FE641121463AF8063C48B187
:102D1000D8B2FEF709FEA7EB09072A2F0AF1060A27
:102D2000CEDDD2E7D8B2FEF72DFEF4E721461046FD
:102D3000D5F83035984790E70AB0BDE8F0872DE91F
:102D4000F04100240F4616469846254644450CDAC5
:102D500056F8240001F088F856F82410054607EBD1
:102D6000840001F0BFF90134F0E72846BDE8F081A6
:102D700000202DE9F04F054685B0009201F13204A4
:102D800003934FF6FF7334F8328C0194984539D091
:102D9000A4F130030293322300274FF0010C03FB10
:102DA00005FE009B03EB0E0AA4F12A0313F9019C14
:102DB0001A46B9F1000F18DD33F8069C039EB145A1
:102DC00023D006269C4606FB07A95CF806BD013702
:102DD000C9F802B0BCF804C0A9F806C04FF0000C56
:102DE000029E0633961B2A2EE0DDBCF1000F03D1B4
:102DF000009B013523F80E80019B32345B1AB3F53A
:102E0000E17FBEDD05B0BDE8F08F0130E8E7F0B549
:102E1000044616460D46FFB001A9FFF719FE3346DA
:102E2000294601AA2046FFF7A3FF07462046FFF7E1
:102E30000FFE33462A46204601A9FFF799FF384680
:102E40007FB0F0BD70B50A460D4601460446FFF757
:102E5000DEFF2A46064604F5FA712046FFF7D7FF43
:102E6000304470BD2DE9F0470E464FF6FF7901F171
:102E7000320434F8323C27464B451CD0A4F1300ACA
:102E8000A4F12A0515F9013CA846002B0DDD15F823
:102E9000060CFEF7A1FDA8EB0A088369B8F12A0F1A
:102EA00025F8063C05F10605ECDDBF1BB7F5E17F13
:102EB00004F13204DDDDBDE8F0872DE9F0470E4670
:102EC0004FF6FF7901F1320434F8323C27464B4586
:102ED0001BD0A4F1300AA4F12A0515F9013CA8463B
:102EE000002B0CDD35F8060CFEF766FDA8EB0A0892
:102EF000B8F12A0F25F8060C05F10605EDDDBF1B1C
:102F0000B7F5E17F04F13204DEDDBDE8F0870000B3
:102F100073B50446194E00F09FFF01F0C9F8022076
:102F200001F0BCF8304601F07FF804F5FA7521464F
:102F30002046FFF797FF29462046FFF793FF2246DA
:102F400031467D232046FFF7FAFE2A467D232046A0
:102F50000B49FFF7F4FE012301AA0A49019020461C
:102F6000FFF7EDFE01F0B0F821462046FFF7A5FF80
:102F700029462046FFF7A1FF02B070BD00F8000807
:102F8000F4F90008E8FB000838B5114B04461D6849
:102F900000F062FFFA210F4800F06CFF854215D166
:102FA0007D2220460B4904F5FA75FFF74BF87D2288
:102FB00028460949FFF746F821462046FFF77DFFDE
:102FC00020462946FFF779FF012038BD0020FCE7A5
:102FD000E8FB000800F80008F4F90008F8B500253F
:102FE00004460E46434BC0F84C15C0F83035C0F8C7
:102FF000E853C0F82C55C0F848551746FFF73DFD7B
:103000002046FFF7C1FF3C4B9E421DD003F5806375
:103010009E4244D00123D4F84C0584F8503500F08A
:1030200049FD39462046FFF7B1FB2046FFF798FCE3
:10303000D4F84C05022100F037FED4F84C051021DD
:1030400000F032FE2046F8BD4FF40063022229460C
:103050002A4801F053F84FF40061284801F088F83D
:103060004FF4805302220321244801F047F8142032
:1030700001F0D8FCF021142001F0E2FC152001F051
:10308000D1FCF021152001F0DBFC132001F0CAFC7B
:10309000F021132001F0D4FC194B1C60BAE74FF467
:1030A000805302222946174801F028F84FF4805136
:1030B000144801F05DF84FF4005302220321114837
:1030C00001F01CF8402001F0ADFCF021402001F09F
:1030D000B7FC412001F0A6FCF021412001F0B0FC3A
:1030E0003F2001F09FFCF0213F2001F0A9FC044BA0
:1030F0005C608FE70527000800640040000801407D
:1031000048030020000C0140024B00211868FFF723
:103110009DBD00BF48030020024B01211868FFF746
:1031200095BD00BF48030020014B1868FFF7C6BBE0
:1031300048030020024B00215868FFF787BD00BFFD
:1031400048030020024B01215868FFF77FBD00BFF4
:1031500048030020014B5868FFF7B0BB480300202C
:103160002DE9F04385B00D469DF8349016461F4674
:10317000FEF732FC0E4CD0F804800E492068FFF7B1
:103180003BF9B9F1000F10D00B492068FFF734F973
:103190000C9B4246CDE9017308492B4620680096F6
:1031A000FFF72AF905B0BDE8F0830549EDE700BF58
:1031B00050030020184E00081D4E0008254E000840
:1031C000214E000870B504460846FEF711FF202185
:1031D0000546FEF7BFFE03782BB910492046BDE82F
:1031E0007040FFF709B90023052100F8013BFEF705
:1031F00094FF06462846FEF7CBFB152807D031463C
:10320000FEF792FB08B90649E8E70649E6E72A46D1
:103210002046BDE870400449FFF7EEB8364E00087E
:10322000514E00085A4E00086F4E00082DE9F84331
:1032300006460846FEF7DCFE0446DFF84480DFF869
:1032400044902C212046FEF785FE00230778054692
:1032500003702046FEF79CFB15280DD0FEF77CFB83
:10326000494602462C463046FFF7C6F82C2F04F894
:10327000017BE6D0BDE8F88322464146F2E700BF75
:103280008B4E0008864E00082DE9F04105460846A1
:10329000FEF7AEFE20218046FEF75CFE0378044672
:1032A0002BB918492846BDE8F041FFF7A5B800271B
:1032B00007704046FEF76CFB152806461AD0637867
:1032C000212B0AD07E2B08D02F2B06D0611C0E4854
:1032D000FEF722FE20B10D49E4E70127A11CF6E725
:1032E000012130461FB1FEF7ABFB0949DAE7FEF7D3
:1032F0009FFBFAE742462846BDE8F0410549FFF743
:103300007BB800BFA54E0008B54E0008BC4E0008B3
:10331000CB4E00086F4E00082DE9F04F054687B0F0
:103320000846FEF765FE0446FEF749FE20210646E4
:103330002046FEF70FFE037833B928462D4907B023
:10334000BDE8F04FFFF758B80027B846DFF8AC905B
:10335000441C2C212046FEF7FDFD824690F800B06B
:1033600080F800802046FEF713FB5446152804F829
:1033700001BB1DD006AB3B4403F80C0C01379AF897
:1033800000302C2B01D1092FE3DD2846FEF7C8FBC6
:10339000DFF86C80DFF86C902846FEF7BDFB044632
:1033A00018B9002E09DC721C07D007B0BDE8F08FF9
:1033B00049462846FFF720F8E1E74246DFF848A0F3
:1033C0000DF10C0BA74201920CD01BF80400FEF784
:1033D000C3FA019A034651462846FFF70DF8013417
:1033E0004A46EFE728460449FFF706F8731CD3D096
:1033F000013ED1E7DC4E0008A24E0008FB4E00085B
:10340000A44E0008C04D00080F4F00082DE9F04FF2
:1034100004468FB00846FEF7EBFD03783649204698
:1034200005930026FEF7E8FF4FF02008DFF8DC9058
:10343000DFF8DCA0DFF8DCB0F7B23846FEF7CCFAF4
:1034400005463846FEF704FBC30702D5059B682BEB
:1034500042D16B68A968384607930691FEF77CFA5B
:1034600006994246079B0190009120464946FEF787
:10347000C3FF0020FFF718FA0DF1270302930DABED
:1034800001930CAB009339460BAB0AAAFFF73EF948
:1034900088B19DF82710194A194B2046002908BF0A
:1034A000134602930D9B174901930C9B0093DDE992
:1034B0000A23FEF7A1FF3846FEF796FAB0B102964E
:1034C0002B68594601936B6920460093D5E9032385
:1034D000FEF792FF4FF02C080136142EACD1204697
:1034E0000949FEF789FF0FB0BDE8F08F514620462D
:1034F000FEF782FFEEE700BF1F4F0008194F0008DC
:10350000144F0008474F0008E74F0008214F0008FC
:10351000D64F0008884F00082DE9F04F044687B0C9
:103520000846FEF765FD90F80080B8F1700F0ED1E7
:103530005C4D2E68002EFDD130462C60FFF7B4F9AB
:103540005949FFF777F92E6007B0BDE8F08FB8F161
:10355000630F0BD10020FFF7A7F9FFF78EFA53494D
:10356000204607B0BDE8F04FFEF746BF2021FEF72A
:10357000F1FC03780BB94E49F2E7FEF739FD202143
:103580000746FEF7E7FC0378064613B9B8F1640F67
:10359000F1D10025384606F8015BFEF7F9F9074638
:1035A0003046FEF725FD152F064601D14149D7E7E4
:1035B000B8F1640F0DD12846FFF776F93946FFF7C9
:1035C00041FC02463C49204607B0BDE8F04FFEF7FB
:1035D00013BFAA460DF1080B20213046FEF7BAFCB6
:1035E000037881460BB9032DC5D1304689F800A078
:1035F000FEF7E5FC032D2CD158BB10213046FEF719
:103600008CFD4FF4001393FBF0F3059309F10100D7
:10361000FEF7EEFC0135042D0646DDD1DDE902960C
:10362000B8F1740F4FF00000049DBDF914A013D140
:10363000FFF73AF933464A463946CDE9005AFFF7D3
:1036400084FA431D042B1FD8DFE803F0191C16135E
:1036500010004BF82500D9E7FFF726F933464A4614
:103660003946CDE9005AFFF77EFAEAE74A461349A0
:10367000A9E732461249A6E72A461249A3E74A4675
:103680001149A0E711496BE7114A124B1249012871
:10369000C8BF13460246204607B0BDE8F04FFEF70C
:1036A000ABBE00BF5003002061310008ED4F0008A1
:1036B0000F500008FB4E0008225000083750000849
:1036C0004B5000085F500008735000089B500008E2
:1036D000BE4B0008A44E0008B750000810B50446C1
:1036E000FEF742FF074902462046FEF785FE00200E
:1036F000FFF7DAF8FFF70CFC2046BDE8104002495E
:10370000FEF77ABEE1500008FD50000810B50446EF
:10371000FEF776FF38B9FDF785FE04492046BDE87F
:103720001040FEF769BE0249F8E700BF0D510008DE
:103730002151000808B501F06DF90000C278014B75
:103740001A707047640300200368064A190A118042
:10375000054A1B0E13704368044AC3F30523137014
:10376000704700BF6803002066030020610300204B
:10377000044B187028B9044B1860044B1860044BB4
:1037800018607047600300205C030020580300208D
:1037900054030020084B094A1B78984228BF18465A
:1037A000074B18701368984202D9013313607047B1
:1037B000FDD2013BFAE700BF640300205C03002058
:1037C000650300200D4B0E4A1B88C01A0028B8BFA5
:1037D00040420A28D2BF0023136801331360094B0B
:1037E0001A78094B1B680C339A4298BF0023074A8A
:1037F00084BF136801331360704700BF6803002063
:1038000058030020660300205C03002054030020BE
:103810002DE9F3414FF000080446284B284F1E685D
:10382000284B0A2E1D683B8898BF002603F10A0327
:1038300088BF012643F44803322D94BF002501259B
:103840006A4601934FF480710823CDF80080FEF79B
:10385000BBFF1D4B6A462046CDE9003840F20111FE
:103860000823FEF7B1FF194B3A881B684FF48171AA
:103870001B0643EA022343F001030093144B204646
:103880001A78144B1B785B0243EA0223124A12781F
:1038900043EA8223114A127843EAC223104A12787B
:1038A00043EA024343EA860343EA051301936A4667
:1038B0000823FEF789FF02B0BDE8F0815403002021
:1038C0006A0300205803002000FFFE005C03002074
:1038D00060030020630300206D03002062030020CA
:1038E0006C030020D0F80220014B1A60704700BF23
:1038F0007C030020D0F80220014B1A60704700BF03
:1039000080030020D0F80220014B1A60704700BFEE
:1039100084030020D0F80220014B1A60704700BFDA
:1039200088030020064A138801331380C278837805
:1039300043EA02230A22B3FBF2F3024A13807047E0
:103940008C0300206E030020D0F80220014B1A6087
:10395000704700BF74030020D0F80220014B1A60AA
:10396000704700BF70030020D0F80220014B1A609E
:10397000704700BF780300208368DB075EBF836861
:1039800043F00103836070478368DB0742BF8368AD
:1039900043F0010383607047836800F1080243F03D
:1039A0000803836013681B07FCD47047836843F0E7
:1039B0000403836070478068C0F38000704708B5D7
:1039C0000246FFF7F3FF1046FFF7F5FF0028FAD194
:1039D00008BD0022134610B501FA02F403321E2A74
:1039E00043EA0403F8D10022036101FA02F403322E
:1039F000182A43EA0403F8D1C36010BD836823F09A
:103A0000010383607047436843F4807343607047E9
:103A1000836823F4006383607047836843F0020384
:103A2000836070471029F0B50CD800260123374673
:103A30003546DCB2A14206D2013945EA0155C562DC
:103A400007634663F0BD062C15D892F800C003EB5F
:103A5000830EAEF1050E0CFA0EFC46EA0C060D3C88
:103A6000052C15D8147803EB830CACF1410C04FA47
:103A70000CF425430CE0A4F1070CBCF1050FEED8C3
:103A8000147803EB830CACF1230C04FA0CF42743F9
:103A900001330132CDE7836800F1080243F480036B
:103AA000836013685B02FCD47047836843F48073BF
:103AB00083607047044B98420CBF40F2192040F2DB
:103AC0001A2000F0CFBC00BF006400402DE9F34194
:103AD0000468884624F0020404600468964644F0B2
:103AE000010404604FF6FF749DF820C09DF8241077
:103AF0009DF828209DF83C609DF840700194019C41
:103B0000051D013C019414B14468E407F7D52C6805
:103B1000E4076ED50024C4610468B8F1000F4FD0EB
:103B200044F0800404600468BEF1000F4BD044F000
:103B300040040460002B49D0036843F02003036075
:103B40000368BCF1000F45D043F010030360036825
:103B5000002942D043F0080303600368002A3FD0E5
:103B600043F004030360C369002F3CD043F00043DB
:103B7000C361C369002E39D043F08043C3610E9BFB
:103B80000D99013BC3F309030B430C99C2690B4325
:103B90000B990B431343C361036823F001030360D4
:103BA0004FF6FF730193019B013B019313B12B6807
:103BB000DB07F8D4286800F0010002B0BDE8F0810E
:103BC00024F08004AEE724F04004B2E7036823F059
:103BD0002003B4E723F01003B8E723F00803BBE7A2
:103BE00023F00403BEE723F00043C1E723F0804342
:103BF000C4E70120E1E70000F0B501241E4D964620
:103C00001A462B689DF81C7043F001032B60EB698A
:103C1000844023EA04031C352B60E643174B09B3A9
:103C200019682143196016490B68BEF1000F1CD0BA
:103C3000234300F1006000F6C8400B60C000059B04
:103C40000260069A43600F4B8AB11A6822431A60D9
:103C500017B12B681C432C60074A136823F001033B
:103C60001360F0BD19683140DCE73340E1E71A68C2
:103C700016401E60ECE700BF006600400C66004086
:103C8000046600401466004030B4BDF808409DF85A
:103C9000105044EA0344049542EA0143029401228D
:103CA00030BC0021FFF7A8BF43690B434361704755
:103CB000436923EA0103436170472DE9F0418046DF
:103CC00080689DF818E04501079E2AD4D8F80800BE
:103CD00004012AD4D8F80800C00050D54FF4D0759C
:103CE000022005EB080422B3C90041F0040145F8A5
:103CF00008101BB1236843F002032360636823F0BC
:103D00000F03636062680EF00F03134363600EF1EC
:103D1000FF33072B2AD8DFE803F02623201B1815D2
:103D2000120E4FF4C0750020DBE74FF4C875012078
:103D3000D7E74905DBE70027F37963F31F67B3791A
:103D400063F31747737963F30F27337963F3070737
:103D50004FF0000CF37863F31F6CB37863F3174CE8
:103D6000737863F30F2C337863F3070CC4F808C03F
:103D7000E760236843F001032360BDE8F0814FF062
:103D8000FF30FAE721B9C36843F02003C3607047EE
:103D9000036943F020030361704719B9C06800F05C
:103DA000030070470069FAE72DE9F347DDF828A022
:103DB0000446DDE90E568846FFF7EFFF4FF4E07149
:103DC00081464FF4D870CDE9000102A901EB8801CA
:103DD00051F8081C6058671810F0040015BF012046
:103DE0008AF800008AF80000605816BF6058400D3D
:103DF000C008186061580B9BC1F3400119707968C5
:103E00000C9B090A197079680D9B01F00F0119705C
:103E100016B17B681B0C3380BE68FB68C6F30721B4
:103E20006970C6F30741A970C3F307212E702B7187
:103E3000C6F307666971C3F30741C3F30763EE7006
:103E4000A971EB711AB141462046FFF79BFF484626
:103E500002B0BDE8F0870000024A136843F0010396
:103E60001360704708300240014B186018687047B3
:103E700000300240002310B5044A8B4201DB106879
:103E800010BD50F8234001331460F6E700300240C3
:103E900014230022013903FB01039A60DA601A61DE
:103EA0005A610F234268890003FA01F1114341600E
:103EB00070470139890002FA01F141607047013908
:103EC0000368890002FA01F1194214BF01200020A1
:103ED000704710B54C1E1421614308300C5824F46F
:103EE00040640C500B5813430B5010BD10B54C1EC2
:103EF0001421614308300C5824F440740C500B58C2
:103F000013430B5010BD4B1E1421594308300B585E
:103F100043F080030B5070474B1E14215943083067
:103F20000B5843F020030B500B5823F480430B50E5
:103F300070474B1E1421594308300B5843F01003AF
:103F40000B5070474B1E1421594308300B5843F057
:103F500001030B5070474B1E1421594308300B5876
:103F600023F001030B5070471423013903FB0100B8
:103F70008368DB0758BF026170471423013903FBD4
:103F800001008368DB0758BF426170474B1E142154
:103F900059430C30085880B270474B1E14215943C6
:103FA0000C300A5070470000064B10B51C6800F03A
:103FB00057FDB0F5007F82BF034B1868044304F03F
:103FC000350010BD0C2002404C20024038B504469C
:103FD0000D4600F081F800F043FDB0F5007F18D9E0
:103FE0000E4B9C4215D90E4A136843F0010313602F
:103FF000258000F071F800F033FDB0F5007F0AD99C
:10400000064B9C4207D9064A136823F0010313604C
:1040100038BD044AE8E7034AF6E700BFFFFF070898
:10402000502002401020024010B5044600F054F821
:1040300000F016FDB0F5007F1DD9134B9C421AD934
:10404000124B1A6842F002021A60114A14601A6890
:1040500042F040021A6000F03FF800F001FDB0F5B8
:10406000007F0FD9084B9C420CD9084A136823F0F3
:104070000203136010BD074B1A6842F002021A6077
:10408000054AE3E7034AF1E7FFFF07085020024033
:10409000542002401020024014200240034A1368BA
:1040A00023F0070303431360704700BF0020024062
:1040B000034B044A1A6002F188321A60704700BF4D
:1040C0000420024023016745024A136843F080033D
:1040D000136070471020024008B5FFF765FFC30763
:1040E000FBD408BD38B505460C4689B2FFF76EFF14
:1040F000210CA81CBDE83840FFF768BF2DE9F0414E
:104100004FF00F0C00250768466843FA05F4E407F2
:104110001CD5072D94BFBE46B646ACB24FEA840408
:104120008ABF203CA4B2A4B20CFA04F82EEA080814
:1041300004F1020E02FA0EFE01FA04F44EEA04043F
:1041400044EA0804072D94BF274626460135102D62
:10415000DBD107604660BDE8F0810000034A1368C8
:1041600023F0E0630B4303431360704704000140F6
:1041700001617047806808407047C36801EA030224
:1041800021EA030141EA0241016170474AF6AA228D
:10419000014B1A60704700BF00300040024A1368AC
:1041A00043F080731360704700100240062822D845
:1041B000DFE800F004090E13181D1F000F4B1868EC
:1041C000C0F3406070470D4B1868C0F3C060704783
:1041D0000A4B1868C0F340707047084B1868C0F36A
:1041E00040407047054B1868C0F340007047044BCF
:1041F000F9E7044BF7E70020704700BF00100240CA
:104200002010024024100240024608B51046FFF775
:10421000CDFF0028FAD008BD06280CD8DFE800F052
:1042200004060C11161B1D00FFF7B8BF0C4A1368DB
:1042300043F0806313607047094A136843F080536A
:10424000F8E7074A136843F48033F3E7044A136836
:1042500043F00103EEE7034AF9E7034AF7E700BF3B
:10426000001002402010024024100240034A13684C
:1042700023F0030303431360704700BF04100240A0
:10428000034A136823F4701343EA804313607047B2
:1042900004100240034A136823F4803343EA0043C6
:1042A0001360704704100240034A136823F400337C
:1042B00043EA40431360704704100240024B186801
:1042C00000F40040704700BF20100240024A13680B
:1042D00043F40043136070472010024006283DD885
:1042E000DFE800F037373726370415001C4B1A6813
:1042F00042F001021A601A689007FCD51A6822F48D
:1043000040721A601A6842F480721A607047154B46
:104310001A6842F001021A601A689107FCD5104B26
:104320001A6822F440721A601A6842F40072ECE7CC
:104330000D4B1A6842F480321A601A689203FCD559
:10434000074B1A6822F440721A601A6842F44072ED
:10435000DBE7034A136823F440731360704700BF20
:10436000201002402410024000100240034A13684B
:1043700023F4404343EA8033136070470410024043
:10438000034A136823F4605343EAC0231360704761
:1043900004100240034A136823F4E06343EA002355
:1043A0001360704704100240034A136823F0F003BF
:1043B00043EA0013136070470410024008B504205C
:1043C000FFF72AFF0420FFF71FFF0020FFF74EFF33
:1043D0000320FFF721FF0320FFF716FF0120FFF75F
:1043E00045FF0020FFF7E0FF0320FFF7BFFF042099
:1043F000FFF7D0FF0020FFF7C3FF0220FFF74EFEBC
:104400000720FFF73DFF0120FFF744FF0020FFF7E3
:104410004BFFFFF7C3FE0020FFF7F6FE0220FFF779
:1044200025FF044B044A05491360054A1160054AFB
:10443000136008BD00A24A04A40200200051250216
:10444000A8020020AC0200200122430903F18043AE
:1044500003F50433196800F01F0002FA00F0084366
:10446000186070470122430903F1804303F50433C8
:10447000196800F01F0002FA00F0014319601A6881
:1044800022EA000018607047044B1A689206FCD5B7
:104490001A6842F010021A60704700BF04280040FA
:1044A000044B1A6822F010021A601A689206FCD5B2
:1044B000704700BF0428004038B5044600254FF47B
:1044C0006770FFF7C1FF40F29B30FFF7BDFF00F0C0
:1044D000CDFA2046FFF702FF0D4C0E4B1D60256004
:1044E000FFF7F4FEFFF7D0FF0B4B0C4A1D605D6039
:1044F0001D615D614FF6FF7313605360FFF7D0FFDE
:10450000236823F00803236023681B07FCD538BD0C
:1045100004280040002800400828004020280040CF
:1045200008B5FFF7B1FF054B82B2C0F303401A6034
:1045300043F8040CBDE80840FFF7B2BF0C28004068
:10454000034B186804331B6843EA0040704700BF00
:104550001828004008B5FFF797FF044B020C80B203
:104560001A605860BDE80840FFF79ABF182800405D
:1045700008B54FF46770FFF767FF40F29B30FFF715
:1045800063FF00F073FA064B1A6822F008021A6003
:104590001A681107FCD51A689206FCD508BD00BF41
:1045A0000428004038B505464FF467700C46FFF705
:1045B0004BFF40F29B30FFF747FFFFF77FFE18B13C
:1045C000BDE83840FFF7D4BF2846FFF775FF204607
:1045D000BDE83840FFF7A4BFC3680B43C360704712
:1045E00003690B4214BF012000207047C9430161D9
:1045F0007047036843F0800303607047036801F06D
:10460000600123F060030360036819430160704791
:10461000036823F0100303607047036843F001034D
:1046200003607047036823F00103036070478162F1
:104630007047C162704706297AD8DFE801F0047933
:10464000337963799200836923F00303836183697B
:104650008361836923F070038361072A68D8DFE8E8
:1046600002F03304090D1115191D836943F010037D
:1046700083617047836943F02003F9E7836943F05E
:104680003003F5E7836943F04003F1E7836943F0C2
:104690005003EDE7836943F06003E9E7836943F082
:1046A0007003E5E7836923F4407383618369836161
:1046B000836923F4E0438361072A39D8DFE802F0F5
:1046C00004060A0E12161A1E8369D1E7836943F4A1
:1046D0008053CDE7836943F40053C9E7836943F40A
:1046E0004053C5E7836943F48043C1E7836943F4DA
:1046F000A043BDE7836943F4C043B9E7836943F44A
:10470000E043B5E7C36923F00303C361C369C36131
:10471000C36923F07003C361072A09D8DFE802F0F8
:104720003304090D1115191DC36943F01003C3614A
:104730007047C36943F02003F9E7C36943F03003CE
:10474000F5E7C36943F04003F1E7C36943F0500361
:10475000EDE7C36943F06003E9E7C36943F0700321
:10476000E5E7C36923F44073C361C369C361C369E7
:1047700023F4E043C361072ADAD8DFE802F0040635
:104780000A0E12161A1EC369D1E7C36943F4805397
:10479000CDE7C36943F40053C9E7C36943F4405309
:1047A000C5E7C36943F48043C1E7C36943F4A04349
:1047B000BDE7C36943F4C043B9E7C36943F4E043C9
:1047C000B5E7062912D8DFE801F0041109110D112F
:1047D0001200836943F0080383617047836943F4DF
:1047E0000063F9E7C36943F00803C3617047C36915
:1047F00043F40063F9E7062909D8DFE801F004155E
:1048000009190D1D1100036A23F0020303627047AA
:10481000036A23F02003F9E7036A23F40073F5E742
:10482000036A23F40053F1E7036A23F00803EDE77A
:10483000036A23F08003E9E7036A23F40063E5E7F2
:10484000062909D8DFE801F0041509190D1D11002A
:10485000036A43F0010303627047036A43F01003E5
:10486000F9E7036A43F48073F5E7036A43F480537E
:10487000F1E7036A43F00403EDE7036A43F0400302
:10488000E9E7036A43F48063E5E706290CD8DFE82B
:1048900001F0040B060B080B0A00426370478263A9
:1048A0007047C26370470264704743690B434361BA
:1048B0007047406A7047416270470000064A074BE4
:1048C00090421B6804BF064B1B6803EB5103B3FB0C
:1048D000F1F18160704700BF00380140A80200205C
:1048E000AC020020C36808290CBF23F4805343F4B2
:1048F0008053C3607047036923F440530B43036143
:104900007047C36823F4C0630B43C3607047C36838
:1049100023F00C030B43C3607047436923F44073D7
:104920000B4343617047C36843F40053C36070474F
:1049300038B504460D4600F018F829462046BDE873
:10494000384000F00AB8436943F0400343617047C0
:10495000436943F0800343617047C1F3080141603C
:1049600070474068C0F30800704703681B06FCD519
:10497000704703680B4214BF012000207047FEE718
:104980007047000038B5184A184B19498B4217D3A5
:104990000021184A934218D3174A184C1368184D2F
:1049A00043F400731360AC4212D3164C164DAC4264
:1049B00012D3FCF73FFD154C154DAC4210D338BD5A
:1049C00052F8040B43F8040BE0E743F8041BE1E75B
:1049D00054F8043B9847E6E754F8043B9847E6E769
:1049E00054F8043B9847E8E74451000800000020D1
:1049F000B00200209003002014ED00E038510008C0
:104A0000385100083851000844510008445100084A
:104A100044510008014B024A1A60FEE70CED00E029
:104A20000400FA05012243099B0003F1604300F0F2
:104A30001F0003F5614302FA00F0186070470000A0
:104A4000432893BF00F16040044B00F00F0000F5D5
:104A500064408CBFC1540170704700BF14ED00E08A
:104A6000014B1888704700BFE0F7FF1F024A136828
:104A700043F4807313607047007000400002040626
:104A8000506F776572204C696D697400636861725C
:104A900067656C696D6974004100736F636C696D63
:104AA0006974002500436F6E746163746F722043F4
:104AB0006F6E74726F6C007564637468726573688E
:104AC0000056006F706D6F646500303D4F66662C58
:104AD00020313D43686172676553746172742C20A4
:104AE000323D436F6E6E6563746F724C6F636B2CF7
:104AF00020333D4368617267652C20343D43686113
:104B000072676553746F700063646D73746174755C
:104B10007300313D4368617267696E672C20323DD6
:104B20004D616C66756E6374696F6E2C20343D4305
:104B30006F6E6E4C6F636B2C20383D426174496E12
:104B4000636F6D702C2031363D53797374656D4DF4
:104B5000616C66756E6374696F6E2C2033323D53E1
:104B6000746F700076657273696F6E00343D312E1C
:104B700030302E522D6E616D6500736F630062617F
:104B80007466756C6C00303D4F66662C20313D4F6D
:104B90006E2C20323D6E610063646D6375726571C9
:104BA000006368676375726C696D00696463636450
:104BB0006D0075646363646D00756463626D73009A
:104BC0006C61737465727200746D7069736100C298
:104BD000B043006370756C6F616400497361496430
:104BE0006300706F776572006B77004B5768004108
:104BF0004D506800416800426175642072617465BF
:104C0000206E6F77203932313630300D0A00656EF4
:104C100061626C657561727400666173747561724E
:104C20007400556E6B6E6F776E20636F6D6D616E85
:104C3000642073657175656E63650D0A0000000080
:104C40000038014004050000000801400002000097
:104C5000000C014040000000004400400706000036
:104C60000008014004000000001401402000000082
:104C70000048004002030000000C01400004000056
:104C800000100140000400000000000000000000CF
:104C9000711A00082558255825580D0A00446566E4
:104CA00061756C7473206C6F616465640D0A0067D4
:104CB000657400666C61670073747265616D006A8B
:104CC000736F6E0063616E00736176650072657369
:104CD00065740064656661756C74730068656C70FA
:104CE0000073657269616C006572726F72730000A7
:104CF000CF4C0008C5310008AF4C00082D32000829
:104D0000B34C000889320008B84C00081933000879
:104D1000BF4C00080D340008C44C000819350008C9
:104D2000C84C0008DD360008D64B00080D370008D7
:104D3000CD4C000835370008D34C0008011F00088F
:104D4000DC4C0008D11E0008E14C0008D91E000808
:104D5000E84C0008D31E000800000000000000001E
:104D6000000000030201000001000000286E756CC5
:104D70006C2900000000000000000000B1220008C3
:104D80005B25755D3A202573202D2025730D0A00C3
:104D90004E6F204572726F72730D0A0053544F505C
:104DA00000444552415445005741524E00303D4E5B
:104DB0004F4E452C20313D544553544552524F528D
:104DC0002C00544553544552524F5200A44E0008F3
:104DD00003000000C24D0008000000009C4D0008C8
:104DE000A14D0008A84D0008000008000000500078
:104DF000090000000000030000002000090000007E
:104E00000000040000002000050000000000050074
:104E1000000040000300000063616E2000727820F3
:104E200000747820002573202564202564202564E3
:104E30002025640D0A004E6F20706172616D6574EB
:104E400065722076616C756520676976656E0D0AFE
:104E500000536574204F4B0D0A0056616C75652038
:104E60006F7574206F662072616E67650D0A00555C
:104E70006E6B6E6F776E20706172616D65746572B6
:104E80002025730D0A0025660D0A00556E6B6E6FA6
:104E9000776E20706172616D657465723A202725A6
:104EA00073270D0A004E6F20666C61672067697674
:104EB000656E0D0A0068696464656E00556E6B6E00
:104EC0006F776E20666C61670D0A00466C61672023
:104ED0006368616E6765204F4B0D0A00557361670B
:104EE000653A2073747265616D206E2076616C3155
:104EF0002C76616C322E2E2E0D0A00556E6B6E6F65
:104F0000776E20706172616D657465720D0A00259F
:104F100073256600747275650066616C7365007B4D
:104F20000025630D0A202020222573223A207B22AF
:104F3000756E6974223A222573222C2276616C7573
:104F400065223A25662C002263616E6964223A2547
:104F5000642C2263616E6F6666736574223A256401
:104F60002C2263616E6C656E677468223A25642C2E
:104F70002263616E6761696E223A25642C2269732F
:104F80007278223A25732C00226973706172616D08
:104F9000223A747275652C226D696E696D756D2289
:104FA0003A25662C226D6178696D756D223A256609
:104FB0002C2264656661756C74223A25662C226326
:104FC000617465676F7279223A222573222C2269F7
:104FD000223A25647D00226973706172616D223A04
:104FE00066616C73657D000D0A7D0D0A00416C6C75
:104FF000206D65737361676520646566696E6974A9
:10500000696F6E7320636C65617265640D0A004D93
:10501000697373696E6720617267756D656E740D73
:105020000A00256420656E74726965732072656D6F
:105030006F7665640D0A00496E76616C6964204381
:10504000414E2049642025780D0A00496E76616C36
:105050006964204F66667365742025640D0A0049F3
:105060006E76616C6964206C656E67746820256477
:105070000D0A0043616E6E6F74206D617020616E69
:10508000796D6F7265206974656D7320746F20434C
:10509000414E2069642025640D0A004D6178206D21
:1050A00065737361676520636F756E7420726561E7
:1050B000636865640D0A0043414E206D6170207382
:1050C00075636365737366756C2C202564206D654C
:1050D00073736167652573206163746976650D0A72
:1050E00000506172616D65746572732073746F72C4
:1050F00065642C204352433D25780D0A0043414E00
:105100004D41502073746F7265640D0A00506172D6
:10511000616D6574657273206C6F616465640D0AFE
:1051200000506172616D6574657220435243206561
:0851300072726F720D0A00009B
:0C5138005D1A0008B52000085925000889
:10514400E01F0000800C0000802F00000000000021
:10515400000000000000000000000000000000004B
:10516400000000000000000000000000000000003B
:10517400000000000000000000000000000000002B
:10518400000000000000000000000000000000001B
:10519400804A00088C4A0008984A00080000000071
:1051A400E01F0000E01F00000A000000804A000821
:1051B4009A4A0008A34A000800000000800C00007E
:1051C400800C00000C000000A54A0008B74A000843
:1051D400C14A000800000000803E0000802F00004B
:1051E4005C00000000000000C34A0008CA4A00082E
:1051F400000000000000000000000000D0070000D4
:1052040000000000084B0008124B000800000000DA
:10521400000000000000000016080000000000006C
:10522400644B00086C4B0008000000000000000004
:1052340000000000D1070000000000007A4B0008C5
:10524400A34A000800000000000000000000000065
:1052540004080000000000007E4B0008864B000894
:10526400000000000000000000000000150800001D
:1052740000000000984B0008984A00080000000055
:1052840000000000000000001C08000000000000F6
:10529400A14B0008984A000800000000000000002C
:1052A400000000001208000000000000AB4B0008E2
:1052B400984A000800000000000000000000000000
:1052C4001308000000000000B24B0008C14A0008A7
:1052D40000000000000000000000000014080000AE
:1052E40000000000B94B0008C14A0008000000009B
:1052F40000000000000000000008000000000000A2
:10530400C04B000800000000000000000000000086
:1053140000000000D207000000000000C84B000895
:10532400CF4B000800000000000000000000000057
:10533400D507000000000000D34B0008A34A000872
:10534400000000000000000000000000D40700007E
:1053540000000000DB4B0008984A00080000000031
:105364000000000000000000D6070000000000005C
:10537400E24B0008E84B00080000000000000000B9
:1053840000000000D707000000000000EB4B0008FD
:10539400EB4B0008000000000000000000000000CB
:1053A400D807000000000000EF4B0008F44B000891
:1053B400000000000000000000000000D907000009
:1053C40002000000000000000000000000000000D7
:1053D40000000000000000000000000000000000C9
:1053E400AD4D000800127A0000127A0000127A0013
:040000050800498521
:00000001FF
